:100000000C9434000C9451000C9451000C94510049
:100010000C9451000C9451000C9451000C9451001C
:100020000C9451000C9451000C9451000C9451000C
:100030000C9451000C9451000C9451000C945100FC
:100040000C9451000C9451000C949A000C945100A3
:100050000C9451000C9451000C9451000C945100DC
:100060000C9451000C94510011241FBECFEFD8E026
:10007000DEBFCDBF11E0A0E0B1E0EEEEF3E002C0E4
:1000800005900D92A630B107D9F721E0A6E0B1E0C6
:1000900001C01D92A331B207E1F70E948D000C94BC
:1000A000F5010C940000219AE0E8F0E08081806482
:1000B0008083E1E8F0E080818D60808380910001A1
:1000C00090910101A0910201B09103019C01AD0149
:1000D000012E1BE0220F331F441F551F1A95D1F725
:1000E000102D60E074E284EF90E00E9492012150B4
:1000F000310930938900209388000895E1ECF0E005
:10010000808188698083E2ECF0E080818660808372
:1001100087E68093C400789408950E947E000E9430
:100120005300E0ECF0E0808185FFFDCF83E3809316
:10013000C600FFCF1F920F920FB60F9211242F937C
:100140003F934F935F936F937F938F939F93AF935F
:10015000BF93EF93FF93E0910601F0E08091C6001A
:10016000E55FFE4F8083809106018F5F80930601DB
:1001700080910601843009F0C4C01092060180917C
:100180000B0190910C01A0910D01B0910E01809393
:10019000000190930101A0930201B09303018091AB
:1001A000000190910101A0910201B091030181151C
:1001B0009241AA47B105BCF48091000190910101E0
:1001C000A0910201B09103018B379105A105B10502
:1001D00054F081E090E0909305018093040189E060
:1001E0008093810068C08091000190910101A091ED
:1001F0000201B091030180349244AF40B105B4F4E0
:100200008091000190910101A0910201B091030140
:100210004097A105B10554F088E090E09093050166
:10022000809304018AE08093810045C080910001A1
:1002300090910101A0910201B09103018834984E80
:10024000A140B105B4F48091000190910101A09109
:100250000201B09103010397A105B10554F080E4B8
:1002600090E090930501809304018BE080938100DE
:1002700022C08091000190910101A0910201B091F2
:10028000030182319A47A105B105ACF480910001C8
:1002900090910101A0910201B09103010297A10583
:1002A000B1054CF080E091E090930501809304014A
:1002B0008CE0809381004091000150910101609198
:1002C000020170910301A0910401B09105019A010E
:1002D000AB01220F331F441F551F0E94B1019B0128
:1002E000AC0160E074E284EF90E00E949201215042
:1002F0003109309389002093880010928500109274
:100300008400FF91EF91BF91AF919F918F917F9169
:100310006F915F914F913F912F910F900FBE0F9072
:100320001F901895052E97FB1EF400940E94A901BA
:1003300057FD07D00E94B90107FC03D04EF40C947E
:10034000A90150954095309521953F4F4F4F5F4FF4
:10035000089590958095709561957F4F8F4F9F4F31
:100360000895B7FF0C94DB010E94DB01821B930B05
:100370000895A1E21A2EAA1BBB1BFD010DC0AA1FE6
:10038000BB1FEE1FFF1FA217B307E407F50720F0FE
:10039000A21BB30BE40BF50B661F771F881F991F79
:1003A0001A9469F760957095809590959B01AC01C2
:1003B000BD01CF0108950E94E601A59F900DB49F55
:1003C000900DA49F800D911D11240895A29FB0014E
:1003D000B39FC001A39F700D811D1124911DB29F79
:0E03E000700D811D1124911D0895F894FFCF1A
:0603EE0002000000000403
:00000001FF
