:100000000EC01DC01CC01BC01AC019C018C017C02C
:1000100016C015C014C013C012C011C010C01124E6
:100020001FBECFE5D1E0DEBFCDBF20E0A0E6B0E04F
:1000300001C01D92A236B207E1F71BD05BC0E0CF32
:10004000C29827E030E048B3809160009091610051
:10005000022E02C0959587950A94E2F78170842B51
:1000600088BBC19AC098C1982150310960F7C29AE3
:10007000089587B3876087BBBB98C39A81E090E0FF
:100080000F2EFAEACF2ED12CF02D0F2EF3E08F2E6B
:10009000F02D912C0F2EFDECEF2EF12CF02DAA243B
:1000A000A394B12C08E310E0D2E0C0E082309105C7
:1000B00079F083309105A9F081309105B9F710935B
:1000C000610000936000BCDF86B38D2F9C2FEECFC4
:1000D000D0926100C0926000B3DF86B3882D992D65
:1000E000E5CFF0926100E0926000AADF86B38A2D2E
:0800F0009B2DDCCFF894FFCF3B
:00000001FF
