:100000000C9434000C9451000C9451000C94510049
:100010000C9451000C9451000C9451000C9451001C
:100020000C9451000C9451000C9451000C9451000C
:100030000C9451000C9451000C9451000C945100FC
:100040000C9451000C9451000C9499000C945100A4
:100050000C9451000C9451000C9451000C945100DC
:100060000C9451000C94510011241FBECFEFD8E026
:10007000DEBFCDBF11E0A0E0B1E0E6EAF2E002C0F1
:1000800005900D92A430B107D9F721E0A4E0B1E0CA
:1000900001C01D92A331B207E1F70E948D000C94BC
:1000A00051010C940000219AE0E8F0E08081806426
:1000B0008083E1E8F0E080818D60808380910001A1
:1000C00090910101A0910201B09103019C01AD0149
:1000D000012E1BE0220F331F441F551F1A95D1F725
:1000E000102D60E074E284EF90E00E941001215036
:1000F000310930938900209388000895E1ECF0E005
:10010000808188698083E2ECF0E080818660808372
:1001100087E68093C400789408950E947E000E9430
:100120005300E0ECF0E080818068808380E090E024
:1001300008951F920F920FB60F9211242F933F93A1
:100140004F935F936F937F938F939F93AF93BF93DF
:10015000EF93FF93E0910401F09105018091C600B7
:10016000E55FFE4F80838091040190910501019627
:100170009093050180930401809104019091050101
:10018000049799F5109205011092040180910B01DA
:1001900090910C01A0910D01B0910E01809300018E
:1001A00090930101A0930201B0930301809100019B
:1001B00090910101A0910201B09103019C01AD0158
:1001C000012E1BE0220F331F441F551F1A95D1F734
:1001D000102D60E074E284EF90E00E941001215045
:1001E000310930938900209388008091000190911B
:1001F0000101A0910201B09103018093C600FF911B
:10020000EF91BF91AF919F918F917F916F915F918E
:100210004F913F912F910F900FBE0F901F90189507
:10022000052E97FB1EF400940E94270157FD07D06E
:100230000E942F0107FC03D04EF40C942701509527
:100240004095309521953F4F4F4F5F4F08959095C2
:100250008095709561957F4F8F4F9F4F0895A1E2D4
:100260001A2EAA1BBB1BFD010DC0AA1FBB1FEE1F30
:10027000FF1FA217B307E407F50720F0A21BB30B7B
:10028000E40BF50B661F771F881F991F1A9469F7F7
:1002900060957095809590959B01AC01BD01CF0153
:0602A0000895F894FFCF61
:0402A6000A0000004A
:00000001FF
