S01700004763634170706C69636174696F6E312E737265635B
S11300000C9434000C94E9000C9451000C945100AD
S11300100C9451000C9451000C9451000C94510018
S11300200C9451000C9451000C9451000C94510008
S11300300C9451000C9451000C9451000C945100F8
S11300400C9451000C9451000C9451000C945100E8
S11300500C9451000C9451000C9451000C945100D8
S11300600C9451000C94510011241FBECFEFD8E022
S1130070DEBFCDBF11E0A0E0B1E0EEEAF2E002C0E5
S113008005900D92AA30B107D9F721E0AAE0B1E0BA
S113009001C01D92A834B207E1F70E9489000C94B4
S11300A055010C9400008FE084B988E38AB95A9A08
S11300B0E9E6F0E0808182608083E89A7894ECE756
S11300C0F0E0808180668083EAE7F0E080818768E1
S11300D0808308958BB11BB827E030E05B982898A3
S11300E045B1E0910A01F0910B01E050FF4F90817E
S11300F0892F90E0022E02C0959587950A94E2F725
S11301008170842B85B95B9A2150310938F75C9A48
S113011008950E9453000F2EFCE0EF2EF1E0FF2E15
S1130120F02D04E610E0CAE0D0E0F701C080D180F1
S113013081E090E0FC01EE0FFF1FE45FFE4F2081A1
S11301403181C216D3063CF4FC01EE0FFF1FE45FBD
S1130150FE4FC080D18001968E31910559F72B9ABC
S1130160C601B8010E942D0170930B0160930A012E
S11301700E946A0029988FE19EE40197F1F700C07C
S11301800000C601BE010E942D016C01CB01BE011D
S11301900E942D0190930B0180930A01299A0E94D9
S11301A06A002A98EFE1FEE43197F1F700C00000FD
S11301B0D0920B01C0920A012A9A83E090E00E9437
S11301C06A002B988FE19EE40197F1F700C00000CC
S11301D0ACCF1F920F920FB60F9211242F933F931F
S11301E04F938F939F93AF93BF93CF93DF93EF93EB
S11301F0FF9320E030E0EAE7F0E0C9E7D0E0808157
S113020080648083808186FDFDCF888190E0D90160
S1130210AA0FBB1FA45FBE4F11969C938E934FEF02
S113022080E792E0415080409040E1F700C0000038
S11302302F5F3F4F2E31310511F7FF91EF91DF9181
S1130240CF91BF91AF919F918F914F913F912F91FA
S11302500F900FBE0F901F90189597FB072E16F462
S1130260009407D077FD09D00E94410107FC05D016
S11302703EF4909581959F4F0895709561957F4FB9
S11302800895AA1BBB1B51E107C0AA1FBB1FA617D9
S1130290B70710F0A61BB70B881F991F5A95A9F72B
S11102A080959095BC01CD010895F894FFCF90
S10D02AE3F065B4F666D7D077F6F0E
S9030000FC
