S01100004879726F73636F50652E7372656377
S11300000C9434000C9451000C9451000C94510045
S11300100C9451000C9451000C9451000C94510018
S11300200C9451000C9451000C9451000C94510008
S11300300C9451000C9451000C9451000C945100F8
S11300400C9451000C9451000C9451000C945100E8
S11300500C9451000C9451000C9451000C945100D8
S11300600C9451000C94510011241FBECFEFD8E022
S1130070DEBFCDBF11E0A0E0B1E0EEEFF1E002C0E1
S113008005900D92A230B107D9F721E0A2E0B1E0CA
S113009001C01D92AE31B207E1F70E94DB000C945F
S11300A0FD000C940000E1ECF0E080818861808325
S11300B0E2ECF0E080818660808387E68093C40070
S11300C008958093C600E0ECF0E0808185FFFDCFC9
S11300D008958CE08093B8001092B90084EE809368
S11300E0BC00ECEBF0E080818823ECF7089584E910
S11300F08093BC0085E08A95F1F700000895909103
S11301000001990F892B8093BB0084EC8093BC0081
S1130110ECEBF0E080818823ECF708958093BB003A
S113012084EC8093BC00ECEBF0E080818823ECF756
S11301300895CF93C82F0E94690080E00E947F0039
S11301408C2F0E948E000E94690081E00E947F0033
S113015084E88093BC00ECEBF0E080818823ECF72A
S11301608091BB00CF910895CF93DF93D82FC62FF2
S11301700E94690080E00E947F008D2F0E948E0003
S11301808C2F0E948E000E947700DF91CF910895FA
S11301900E94530061E08BE60E94B40060E08BE1B2
S11301A00E94B40060E08CE10E94B40060E08AE147
S11301B00E94B40008950E94C800C8E1D1E00E94E2
S11301C069008BE30E94990088830E9477008CE386
S11301D00E94990089830E94770089810E946100AE
S11301E088810E9461002FEF83EC99E021508040C8
S11101F09040E1F700C00000E2CFF894FFCF8A
S10501FE680093
S9030000FC
