:100000000EC028C027C026C025C024C023C022C0DF
:1000100021C020C01FC01EC01DC01CC01BC0112499
:100020001FBECFE5D1E0DEBFCDBF10E0A0E6B0E05F
:10003000ECE1F2E002C005900D92A236B107D9F7CB
:1000400020E0A2E6B0E001C01D92A536B207E1F7BC
:10005000CAD0E2C0D5CF27E030E09091620048B32B
:10006000892F90E0022E02C0959587950A94E2F7B9
:1000700081709927842B88BBC19A4FE789EA93E066
:10008000415080409040E1F700C00000C098C19806
:100090004FE789EA93E0415080409040E1F700C08B
:1000A000000021503109C8F683E090E09093610090
:1000B000809360000895C09A2FEB84ED91E0215069
:1000C00080409040E1F700C00000C0982FEB84ED25
:1000D00091E0215080409040E1F700C00000C09ABC
:1000E0002FEB84ED91E0215080409040E1F700C07B
:1000F0000000C0982FEB84ED91E0215080409040AB
:10010000E1F700C00000C09A2FEB84ED91E0215090
:1001100080409040E1F700C00000C0982FEB84EDD4
:1001200091E0215080409040E1F700C0000082E063
:1001300090E090936100809360000895C19A2FEB46
:1001400084ED91E0215080409040E1F700C0000034
:10015000C1982FEB84ED91E0215080409040E1F771
:1001600000C00000C19A2FEB84ED91E02150804047
:100170009040E1F700C00000C1982FEB84ED91E0C2
:10018000215080409040E1F700C00000C19A2FEB61
:1001900084ED91E0215080409040E1F700C00000E4
:1001A000C1982FEB84ED91E0215080409040E1F721
:1001B00000C0000008958091600090916100049754
:1001C00009F4BCDF24E030E006C0B49908C03093E5
:1001D0006100209360008091600090916100843004
:1001E000910599F7089585E28093620087B3836053
:1001F00087BBC49A80916000909161008230910524
:1002000039F08330910531F0019781F754DFEECF5B
:0C02100022DFECCFD0DFEACFF894FFCF64
:02021C000100DF
:04000003000000B643
:00000001FF
